:020000040800F2
:10000000000002200D090008950800089B08000860
:10001000A1080008A7080008AD08000800000000BB
:10002000000000000000000000000000B30800080D
:10003000C108000800000000CF080008DD08000823
:100040005D0900085D0900085D0900085D090008F8
:100050005D0900085D0900085D0900085D090008E8
:100060005D0900085D0900085D0900085D090008D8
:100070005D0900085D0900085D0900085D090008C8
:100080005D0900085D0900085D0900080000000026
:100090000000000000000000000000005D090008F2
:1000A0005D0900085D0900085D0900085D09000898
:1000B0005D0900085D0900085D0900085D09000888
:1000C0005D0900085D0900085D0900085D09000878
:1000D0005D0900085D0900085D09000800000000D6
:1000E0005D0900085D0900085D09000800000000C6
:1000F0000000000000000000000000005D09000892
:10010000000000005D0900085D0900085D090008A5
:1001100000000000000000000000000000000000DF
:100120005D0900085D0900085D0900085D09000817
:100130005D09000800000000000000000000000051
:100140000000000000000000000000005D09000841
:100150005D0900085D0900085D0900085D090008E7
:100160005D0900085D0900080000000000000000B3
:10017000000000000000000000000000000000007F
:10018000000000005D090008000000000000000001
:080190005D0900085D0900088B
:1001980010B5054C237833B9044B13B10448AFF3B9
:1001A80000800123237010BD0C0000200000000017
:1001B8009023000808B5034B1BB103490348AFF36C
:1001C800008008BD000000001000002090230008F7
:1001D800034613F8012B002AFBD1181A013870477F
:1001E80053B94AB9002908BF00281CBF4FF0FF3196
:1001F8004FF0FF3000F070B9ADF1080C6DE904CE96
:1002080000F006F8DDF804E0DDE9022304B07047E9
:100218002DE9F047089E0D4604460F46002B4AD1AB
:100228008A42944665D9B2FA82F343B102FA03FCD2
:10023800C3F120029F4020FA02F217439C404FEA84
:100248001C4E1FFA8CF5B7FBFEF1220C0EFB117742
:1002580042EA074201FB05F090420AD91CEB020270
:1002680001F1FF3780F01C81904240F21981023978
:100278006244121AA4B2B2FBFEF00EFB102244EA4A
:10028800024400FB05F5A5420AD91CEB040400F161
:10029800FF3280F00781A54240F2048164440238AD
:1002A80040EA0140641B00211EB1DC400023C6E97E
:1002B8000043BDE8F0878B4208D9002E00F0ED809E
:1002C8000021C6E900050846BDE8F087B3FA83F1C6
:1002D800002949D1AB4202D3824200F2F880841A45
:1002E80065EB030201201746002EE2D0C6E900475D
:1002F800DFE702B9FFDEB2FA82F3002B40F090800C
:100308008A1A4FEA1C471FFA8CFE0121B2FBF7F547
:1003180007FB1520220C42EA00420EFB05F0904232
:1003280008D91CEB020205F1FF3802D2904200F214
:10033800CB804546121AA4B2B2FBF7F007FB102295
:1003480044EA02440EFB00FEA64508D91CEB04044F
:1003580000F1FF3202D2A64500F2BB801046A4EBA2
:100368000E0440EA05409FE7C1F120078B4022FABE
:1003780007FC4CEA030C05FA01F420FA07F3FD40E8
:100388004FEA1C492343B5FBF9F81FFA8CFE09FB19
:1003980018551C0C44EA054408FB0EF5A54202FA60
:1003A80001F200FA01F00BD91CEB040408F1FF3A42
:1003B80080F08880A54240F28580A8F10208644454
:1003C800641B9DB2B4FBF9F309FB134445EA0444EA
:1003D80003FB0EFEA64508D91CEB040403F1FF3508
:1003E8006CD2A6456AD9023B644443EA0843A3FB9E
:1003F8000295A4EB0E04AC42C846AE4656D353D081
:1004080056B1B0EB080264EB0E0404FA07F7CA40D1
:10041800CC401743C6E9007418460021BDE8F087B0
:10042800C3F1200102FA03FC20FA01F225FA01F1D6
:100438009D402A434FEA1C471FFA8CFEB1FBF7F098
:1004480007FB1015110C41EA054100FB0EF58D4222
:1004580004FA03F408D91CEB010100F1FF382FD28C
:100468008D422DD902386144491B92B2B1FBF7F590
:1004780007FB151142EA014205FB0EF1914208D92A
:100488001CEB020205F1FF3816D2914214D9023D45
:100498006244521A45EA004138E73146304608E7D7
:1004A8003946E6E61046FBE64845A9D2B9EB02080C
:1004B80065EB0C0E013BA3E74546EAE72B4694E7BC
:1004C8004046D1E7D0467BE7023D624432E7084622
:1004D8000AE76444023842E7704700BFB0B586B007
:1004E80000AFF860B9607A6000F0E2FB00237B613E
:1004F8001DE0BA687B69D1187A687B69D31A042B26
:1005080028BF04231A4607F11003184601F02EFFEE
:10051800FA687B69D1183B6900221C4615462246B9
:100528002B46022000F070FB7B6904337B617A69FB
:100538007B689A42DDD300F0DDFB00BF1837BD466B
:10054800B0BD80B584B000AFF860B9607A60FB6870
:100558007A681946B86801F009FF00BF1037BD4630
:1005680080BD80B588B000AF786000F0A1FB07F1CE
:100578000C0300221A605A609A60DA601A6100233C
:10058800BB600023FB607B687B610123BB610223A6
:10059800FB6107F1080207F10C031146184600F049
:1005A800F9FC00F0A7FB00BF2037BD4680BD000066
:1005B800B0B598B000AF00F0CFF900F04FF800F0F8
:1005C800D5F800F0A9F8204B07F144041D460FCDDB
:1005D8000FC495E8070003C4227043F239033B6453
:1005E8001A4BFB630620FFF7BCFF07F144031846CC
:1005F800FFF7EEFD03465A1C07F144031946144859
:10060800FFF76CFF07F14003042219461148FFF772
:1006180065FF07F13C03042219460F48FFF75EFF08
:1006280007F10803322219460948FFF78AFF3B1DE4
:10063800042219460748FFF784FF3B46042219465F
:100648000548FFF77EFFFEE7A823000879E9F64290
:1006580000000408800004089000040880B594B0E5
:1006680000AF07F1200330220021184601F052FEA6
:1006780007F10C0300221A605A609A60DA601A6166
:100688000023BB60224B1B6C214A43F08053136448
:100698001F4B1B6C03F08053BB60BB6800237B605F
:1006A8001C4B1B681B4A43F440431360194B1B68DF
:1006B80003F440437B607B6802233B620123FB62B7
:1006C80010233B630023BB6307F12003184600F0A7
:1006D80007FF0346002B01D000F062F80F23FB60F0
:1006E80000233B6100237B610023BB610023FB6186
:1006F80007F10C030021184601F06AF90346002BA4
:1007080001D000F04DF800BF5037BD4680BD00BF96
:10071800003802400070004080B500AF114B124A0B
:100728001A60104B4FF4E1325A600E4B00229A6067
:100738000C4B0022DA600B4B00221A61094B0C2289
:100748005A61084B00229A61064B0022DA6105487B
:1007580001F01EFB0346002B01D000F021F800BF7A
:1007680080BD00BF280000200010014080B483B085
:1007780000AF00237B60094B1B6B084A43F0010361
:100788001363064B1B6B03F001037B607B6800BFA0
:100798000C37BD465DF8047B704700BF0038024047
:1007A80080B400AF72B600BFFEE7000080B483B02B
:1007B80000AF00237B60104B5B6C0F4A43F480430F
:1007C80053640D4B5B6C03F480437B607B680023B0
:1007D8003B60094B1B6C084A43F080531364064B7B
:1007E8001B6C03F080533B603B6800BF0C37BD4671
:1007F8005DF8047B704700BF0038024080B58AB0BE
:1008080000AF786007F1140300221A605A609A60FA
:10081800DA601A617B681B68194A93422CD100235D
:100828003B61184B5B6C174A43F010035364154B3C
:100838005B6C03F010033B613B690023FB60114BC9
:100848001B6B104A43F0010313630E4B1B6B03F041
:100858000103FB60FB684FF4C0637B610223BB614B
:100868000023FB6103233B6207237B6207F1140328
:100878001946054800F0B0FC00BF2837BD4680BDCA
:1008880000100140003802400000024080B400AF70
:10089800FEE780B400AFFEE780B400AFFEE780B4A7
:1008A80000AFFEE780B400AFFEE780B400AF00BF42
:1008B800BD465DF8047B704780B400AF00BFBD46FD
:1008C8005DF8047B704780B400AF00BFBD465DF89B
:1008D800047B704780B500AF00F090F800BF80BD82
:1008E80080B400AF064BD3F88830054A43F4700350
:1008F800C2F8883000BFBD465DF8047B704700BF72
:1009080000ED00E0DFF834D00D480E490E4A002310
:1009180002E0D458C4500433C4188C42F9D30B4AAB
:100928000B4C002301E013600432A242FBD3FFF713
:10093800D7FF01F0F7FCFFF73BFE704700000220ED
:10094800000000200C000020EC2300080C00002010
:1009580090000020FEE7000080B500AF0E4B1B683A
:100968000D4A43F4007313600B4B1B680A4A43F4A7
:1009780080631360084B1B68074A43F48073136055
:10098800032000F00DF90F2000F008F8FFF70EFF24
:100998000023184680BD00BF003C024080B582B0ED
:1009A80000AF7860124B1A68124B1B7819464FF447
:1009B8007A73B3FBF1F3B2FBF3F3184600F017F9BF
:1009C8000346002B01D001230EE07B680F2B0AD8C9
:1009D800002279684FF0FF3000F0EDF8064A7B6896
:1009E8001360002300E0012318460837BD4680BD88
:1009F80000000020080000200400002080B400AFA0
:100A0800064B1B781A46064B1B681344044A1360AE
:100A180000BFBD465DF8047B704700BF080000209A
:100A28006C00002080B400AF034B1B681846BD461D
:100A38005DF8047B704700BF6C00002080B485B06F
:100A480000AF78607B6803F00703FB600C4BDB6842
:100A5800BB60BA684FF6FF031340BB60FB681A021D
:100A6800BB68134343F0BF6343F40033BB60044ADD
:100A7800BB68D36000BF1437BD465DF8047B704780
:100A880000ED00E080B400AF044BDB681B0A03F004
:100A980007031846BD465DF8047B704700ED00E08B
:100AA80080B483B000AF03463960FB7197F9073013
:100AB800002B0ADB3B68DAB20C4997F907301201C0
:100AC800D2B20B4483F800230AE03B68DAB2084943
:100AD800FB7903F00F03043B1201D2B20B441A76E0
:100AE80000BF0C37BD465DF8047B704700E100E0AD
:100AF80000ED00E080B489B000AFF860B9607A60BA
:100B0800FB6803F00703FB61FB69C3F10703042BD0
:100B180028BF0423BB61FB690433062B02D9FB6998
:100B2800033B00E000237B614FF0FF32BB6902FA10
:100B380003F3DA43BB681A407B699A404FF0FF31F0
:100B48007B6901FA03F3D9437B680B4013431846CA
:100B58002437BD465DF8047B7047000080B582B03D
:100B680000AF78607B68013BB3F1807F01D301233C
:100B78000FE00A4A7B68013B53600F214FF0FF30BA
:100B8800FFF78EFF054B00229A60044B07221A607C
:100B9800002318460837BD4680BD00BF10E000E0BE
:100BA80080B582B000AF78607868FFF747FF00BF74
:100BB8000837BD4680BD80B586B000AF0346B96032
:100BC8007A60FB7300237B61FFF75CFF78617A68CA
:100BD800B9687869FFF78EFF024697F90F3011461A
:100BE8001846FFF75DFF00BF1837BD4680BD80B5CA
:100BF80082B000AF78607868FFF7B0FF0346184608
:100C08000837BD4680BD000080B586B000AFF860EB
:100C1800B960C7E900230123FB75234B1B7E012B19
:100C280001D102233BE0204B01221A764CF25030CE
:100C380000F070F80346FB75FB7D002B2BD1FB6899
:100C4800002B05D13B781946B86800F01BF916E06F
:100C5800FB68012B05D13B881946B86800F0EEF80F
:100C68000DE0FB68022B05D13B681946B86800F017
:100C7800C3F804E0D7E90023B86800F08BF84CF219
:100C8800503000F047F80346FB75084B1B69074ACC
:100C980023F001031361044B00221A76FB7D1846EA
:100CA8001837BD4680BD00BF70000020003C0240E0
:100CB80080B483B000AF0023FB710B4B1B69002B82
:100CC8000BDA094B094A5A60074B094A5A60064B26
:100CD8001B69002B01DA0123FB71FB7918460C37DD
:100CE800BD465DF8047B7047003C02402301674520
:100CF800AB89EFCD80B400AF054B1B69044A43F0C4
:100D08000043136100231846BD465DF8047B704715
:100D1800003C024080B584B000AF78600023FB60DF
:100D28001A4B0022DA61FFF77DFEF86010E07B685D
:100D3800B3F1FF3F0CD07B68002B07D0FFF772FEA2
:100D48000246FB68D31A7A689A4201D2032319E053
:100D58000F4BDB6803F48033002BE8D10C4BDB68C6
:100D680003F00103002B02D0094B0122DA60084B83
:100D7800DB6803F4F973002B03D000F0A5F8012316
:100D880000E0002318461037BD4680BD70000020E3
:100D9800003C024080B485B000AFF860C7E900238A
:100DA800144B1B69134A23F440731361114B1B69DD
:100DB800104A43F4407313610E4B1B690D4A43F00C
:100DC80001031361FB683A681A60BFF36F8F00BFB5
:100DD800D7E900014FF000024FF000030A0000239A
:100DE800F968043113460B6000BF1437BD465DF83F
:100DF800047B7047003C024080B483B000AF786049
:100E080039600D4B1B690C4A23F4407313610A4B7C
:100E18001B69094A43F400731361074B1B69064AAF
:100E280043F0010313617B683A681A6000BF0C370E
:100E3800BD465DF8047B7047003C024080B483B037
:100E480000AF78600B467B800D4B1B690C4A23F47E
:100E5800407313610A4B1B69094A43F48073136199
:100E6800074B1B69064A43F0010313617B687A88C4
:100E78001A8000BF0C37BD465DF8047B704700BF81
:100E8800003C024080B483B000AF78600B46FB7032
:100E98000C4B1B690B4A23F440731361094B094A35
:100EA8001B691361074B1B69064A43F00103136171
:100EB8007B68FA781A7000BF0C37BD465DF8047B72
:100EC800704700BF003C024080B400AF2F4BDB6886
:100ED80003F01003002B08D02D4BDB6943F01003FF
:100EE8002B4AD361294B1022DA60284BDB6803F0C8
:100EF8002003002B08D0264BDB6943F00803244A63
:100F0800D361224B2022DA60204BDB6803F04003D8
:100F1800002B08D01E4BDB6943F004031C4AD36145
:100F28001A4B4022DA60194BDB6803F08003002B70
:100F380008D0174BDB6943F00203154AD361134B02
:100F48008022DA60114BDB6803F48073002B09D030
:100F58000F4BDB6943F001030D4AD3610B4B4FF490
:100F68008072DA60094BDB6803F00203002B08D0BB
:100F7800074BDB6943F02003054AD361034B022288
:100F8800DA6000BFBD465DF8047B7047003C024054
:100F98007000002080B584B000AF7860396001230C
:100FA800FB730023BB60314B1B7E012B01D1022355
:100FB80058E02E4B01221A764CF25030FFF7AAFE69
:100FC8000346FB73FB7B002B48D13B684FF0FF3295
:100FD8001A607B681B68012B15D17B681B69DAB224
:100FE8007B685B681946104600F044F84CF25030B4
:100FF800FFF790FE0346FB731D4B1B691C4A23F049
:101008000403136128E07B689B68BB601CE07B6875
:101018001B69DBB21946B86800F050F84CF2503042
:10102800FFF778FE0346FB73114B1B69104A23F048
:10103800FA031361FB7B002B03D03B68BA681A6084
:101048000AE0BB680133BB607B68DA687B689B6831
:101058001344BA689A42DAD300F078F8034B0022B6
:101068001A76FB7B18461037BD4680BD70000020FD
:10107800003C024080B483B000AF03463960FB7186
:101088000D4B1B690C4A23F4407313610A4B1B690F
:10109800094A43F004031361074B1A69FB791B02E1
:1010A8001343054A43F48033136100BF0C37BD4630
:1010B8005DF8047B704700BF003C024080B485B0F7
:1010C80000AF78600B46FB700023FB60FB78002BB9
:1010D80002D10023FB6010E0FB78012B03D14FF411
:1010E8008073FB6009E0FB78022B03D14FF4007397
:1010F800FB6002E04FF44073FB60134B1B69124A1C
:1011080023F440731361104B1A690F49FB681343AA
:101118000B610D4B1B690C4A23F0F80313610A4B52
:101128001A697B68DB001343074A43F00203136123
:10113800054B1B69044A43F48033136100BF14371D
:10114800BD465DF8047B7047003C024080B400AFA8
:10115800204B1B6803F40073002B17D01D4B1B6832
:101168001C4A23F4007313601A4B1B68194A43F492
:1011780000631360174B1B68164A23F4006313605F
:10118800144B1B68134A43F400731360114B1B681C
:1011980003F48063002B17D00E4B1B680D4A23F411
:1011A800806313600B4B1B680A4A43F48053136037
:1011B800084B1B68074A23F480531360054B1B68D0
:1011C800044A43F48063136000BFBD465DF8047BA6
:1011D800704700BF003C024080B489B000AF78601F
:1011E800396000237B6100233B610023BB6100233E
:1011F800FB6159E10122FB6902FA03F37B613B6859
:101208001B687A6913403B613A697B699A4240F0EE
:1012180048813B685B6803F00303012B05D03B68FA
:101228005B6803F00303022B30D17B689B68BB61CA
:10123800FB695B00032202FA03F3DB43BA6913403C
:10124800BB613B68DA68FB695B0002FA03F3BA69C1
:101258001343BB617B68BA699A607B685B68BB6152
:101268000122FB6902FA03F3DB43BA691340BB614D
:101278003B685B681B0903F00102FB6902FA03F390
:10128800BA691343BB617B68BA695A603B685B689B
:1012980003F00303032B17D07B68DB68BB61FB6992
:1012A8005B00032202FA03F3DB43BA691340BB6114
:1012B8003B689A68FB695B0002FA03F3BA69134357
:1012C800BB617B68BA69DA603B685B6803F003035B
:1012D800022B23D1FB69DA087B68083253F82230E5
:1012E800BB61FB6903F007039B000F2202FA03F3BB
:1012F800DB43BA691340BB613B681A69FB6903F0B9
:1013080007039B0002FA03F3BA691343BB61FB6945
:10131800DA087B680832B96943F822107B681B68D1
:10132800BB61FB695B00032202FA03F3DB43BA6982
:101338001340BB613B685B6803F00302FB695B0019
:1013480002FA03F3BA691343BB617B68BA691A608E
:101358003B685B6803F44033002B00F0A280002355
:10136800FB60574B5B6C564A43F480435364544BC1
:101378005B6C03F48043FB60FB68524AFB699B0883
:10138800023352F82330BB61FB6903F003039B006F
:101398000F2202FA03F3DB43BA691340BB617B688F
:1013A800494A934219D07B68484A934213D07B68D4
:1013B800474A93420DD07B68464A934207D07B68E0
:1013C800454A934201D1042308E0072306E003239A
:1013D80004E0022302E0012300E00023FA6902F09E
:1013E800030292009340BA691343BB613549FB6914
:1013F8009B080233BA6941F82320384B9B68BB61CC
:101408003B69DB43BA691340BB613B685B6803F423
:101418008013002B03D0BA693B691343BB612F4A81
:10142800BB6993602D4BDB68BB613B69DB43BA69E1
:101438001340BB613B685B6803F40013002B03D0C7
:10144800BA693B691343BB61244ABB69D360234B28
:101458005B68BB613B69DB43BA691340BB613B68AE
:101468005B6803F40033002B03D0BA693B6913436C
:10147800BB611A4ABB695360184B1B68BB613B6967
:10148800DB43BA691340BB613B685B6803F4803394
:10149800002B03D0BA693B691343BB610F4ABB6990
:1014A8001360FB690133FB61FB690F2B7FF6A2AE6A
:1014B80000BF00BF2437BD465DF8047B704700BFFE
:1014C8000038024000380140000002400004024099
:1014D80000080240000C024000100240003C01409D
:1014E80080B586B000AF78607B68002B01D10123FE
:1014F80067E27B681B6803F00103002B75D0884BFB
:101508009B6803F00C03042B0CD0854B9B6803F0FD
:101518000C03082B12D1824B5B6803F48003B3F5EC
:10152800800F0BD17E4B1B6803F40033002B5BD07C
:101538007B685B68002B57D1012342E27B685B68BC
:10154800B3F5803F06D1764B1B68754A43F4803368
:1015580013601DE07B685B68B3F5A02F0CD1704B5E
:101568001B686F4A43F4802313606D4B1B686C4AF9
:1015780043F4803313600BE0694B1B68684A23F41B
:1015880080331360664B1B68654A23F4802313601D
:101598007B685B68002B13D0FFF744FA386108E0DA
:1015A800FFF740FA02463B69D31A642B01D903239B
:1015B80007E25B4B1B6803F40033002BF0D014E008
:1015C800FFF730FA386108E0FFF72CFA02463B696A
:1015D800D31A642B01D90323F3E1514B1B6803F49D
:1015E8000033002BF0D100E000BF7B681B6803F0DC
:1015F8000203002B63D04A4B9B6803F00C03002BBB
:101608000BD0474B9B6803F00C03082B1CD1444BB1
:101618005B6803F48003002B16D1414B1B6803F071
:101628000203002B05D07B68DB68012B01D0012366
:10163800C7E13B4B1B6823F0F8027B681B69DB00A2
:10164800374913430B603AE07B68DB68002B20D0F6
:10165800344B01221A60FFF7E5F9386108E0FFF71B
:10166800E1F902463B69D31A022B01D90323A8E109
:101678002B4B1B6803F00203002BF0D0284B1B6890
:1016880023F0F8027B681B69DB00254913430B60D4
:1016980015E0244B00221A60FFF7C4F9386108E00E
:1016A800FFF7C0F902463B69D31A022B01D903237D
:1016B80087E11B4B1B6803F00203002BF0D17B680A
:1016C8001B6803F00803002B36D07B685B69002B8E
:1016D80016D0154B01221A60FFF7A4F9386108E00B
:1016E800FFF7A0F902463B69D31A022B01D903235D
:1016F80067E10B4B5B6F03F00203002BF0D01BE09C
:10170800094B00221A60FFF78DF938610EE0FFF7E8
:1017180089F902463B69D31A022B07D9032350E102
:101728000038024000004742800E4742884B5B6FFA
:1017380003F00203002BEAD17B681B6803F0040363
:10174800002B00F097800023FB75814B1B6C03F086
:101758008053002B0FD10023BB607D4B1B6C7C4A50
:1017680043F0805313647A4B1B6C03F08053BB60C7
:10177800BB680123FB75774B1B6803F48073002B50
:1017880018D1744B1B68734A43F480731360FFF7D6
:1017980049F9386108E0FFF745F902463B69D31A71
:1017A800022B01D903230CE16A4B1B6803F48073F5
:1017B800002BF0D07B689B68012B06D1644B1B6F14
:1017C800634A43F0010313671CE07B689B68052BA1
:1017D8000CD15F4B1B6F5E4A43F0040313675C4BED
:1017E8001B6F5B4A43F0010313670BE0584B1B6FF9
:1017F800574A23F001031367554B1B6F544A23F0D4
:10180800040313677B689B68002B15D0FFF70AF960
:1018180038610AE0FFF706F902463B69D31A41F23C
:101828008832934201D90323CBE0494B1B6F03F065
:101838000203002BEED014E0FFF7F4F838610AE059
:10184800FFF7F0F802463B69D31A41F28832934217
:1018580001D90323B5E03E4B1B6F03F00203002BB5
:10186800EED1FB7D012B05D1394B1B6C384A23F097
:10187800805313647B689B69002B00F0A180344B74
:101888009B6803F00C03082B5CD07B689B69022BD8
:1018980041D1314B00221A60FFF7C4F8386108E0E3
:1018A800FFF7C0F802463B69D31A022B01D903237C
:1018B80087E0274B1B6803F00073002BF0D17B688F
:1018C800DA697B681B6A1A437B685B6A9B011A4367
:1018D8007B689B6A5B08013B1B041A437B68DB6AD5
:1018E8001B061B4913434B601B4B01221A60FFF771
:1018F80099F8386108E0FFF795F802463B69D31A72
:10190800022B01D903235CE0114B1B6803F0007321
:10191800002BF0D054E0104B00221A60FFF782F839
:10192800386108E0FFF77EF802463B69D31A022BBC
:1019380001D9032345E0064B1B6803F00073002B15
:10194800F0D13DE07B689B69012B07D1012338E08A
:101958000038024000700040600047421B4B5B6843
:10196800FB607B689B69012B28D0FB6803F480022D
:101978007B68DB699A4221D1FB6803F03F027B68F0
:101988001B6A9A421AD1FA6847F6C07313407A68FC
:10199800526A9201934211D1FB6803F440327B688A
:1019A8009B6A5B08013B1B049A4207D1FB6803F062
:1019B80070627B68DB6A1B069A4201D0012300E053
:1019C800002318461837BD4680BD00BF00380240C6
:1019D80080B584B000AF786039607B68002B01D196
:1019E8000123CCE0684B1B6803F007033A689A426E
:1019F8000CD9654B3A68D2B21A70634B1B6803F076
:101A080007033A689A4201D00123B8E07B681B6853
:101A180003F00203002B20D07B681B6803F004034B
:101A2800002B05D0594B9B68584A43F4E053936008
:101A38007B681B6803F00803002B05D0534B9B6899
:101A4800524A43F460439360504B9B6823F0F00282
:101A58007B689B684D4913438B607B681B6803F068
:101A68000103002B44D07B685B68012B07D1474BEF
:101A78001B6803F40033002B19D101237FE07B6836
:101A88005B68022B03D07B685B68032B07D13F4B55
:101A98001B6803F00073002B09D101236FE03B4B57
:101AA8001B6803F00203002B01D1012367E0374BC9
:101AB8009B6823F003027B685B68344913438B609F
:101AC800FEF7B0FFF8600AE0FEF7ACFF0246FB68DD
:101AD800D31A41F28832934201D903234FE02B4BAA
:101AE8009B6803F00C027B685B689B009A42EBD111
:101AF800254B1B6803F007033A689A420CD2224B25
:101B08003A68D2B21A70204B1B6803F007033A6890
:101B18009A4201D0012332E07B681B6803F004037A
:101B2800002B08D0194B9B6823F4E0527B68DB68D4
:101B3800164913438B607B681B6803F00803002B6E
:101B480009D0124B9B6823F460427B681B69DB0059
:101B58000E4913438B6000F021F802460B4B9B683B
:101B68001B0903F00F030A49CB5C22FA03F3094A65
:101B78001360094B1B681846FEF710FF0023184630
:101B88001037BD4680BD00BF003C0240003802400F
:101B9800C423000800000020040000202DE9B04FF5
:101BA80090B000AF00237B630023FB6300233B63FB
:101BB8000023BB63594B9B6803F00C03082B0DD023
:101BC800082B00F2A180002B02D0042B03D09BE04D
:101BD800534BBB639BE0534BBB6398E04F4B5B6835
:101BE80003F03F037B634D4B5B6803F48003002BDA
:101BF80028D04A4B5B689B0900223B627A623B6AA9
:101C0800C3F308000021474B03FB01F2002300FB4C
:101C180003F31344434AA0FB0212FA620A46BA626B
:101C2800FA6A1344FB627B6B0022BB61FA61D7E955
:101C38000623D7E90A01FEF7D3FA02460B461346F4
:101C4800FB6353E0354B5B689B0900223B617A617B
:101C58003B69C3F3080A4FF0000B52465B464FF04E
:101C680000004FF00001590141EAD26150010246DB
:101C78000B46B2EB0A0863EB0B094FF000024FF07A
:101C880000034FEA891343EA98634FEA8812B2EBDC
:101C9800080463EB09054FF000024FF00003EB0066
:101CA80043EA5473E20014461D4614EB0A033B60F2
:101CB80045EB0B037B604FF000024FF00003D7E9C0
:101CC800004529468B02214643EA915321468A0260
:101CD800104619467B6B0022BB60FA60D7E90223E5
:101CE800FEF77EFA02460B461346FB630B4B5B6816
:101CF8001B0C03F0030301335B003B63FA6B3B6B84
:101D0800B2FBF3F3BB6302E0054BBB6300BFBB6BE5
:101D180018464037BD46BDE8B08F00BF00380240C6
:101D28000024F40040787D0180B400AF034B1B68A9
:101D38001846BD465DF8047B704700BF00000020D0
:101D480080B500AFFFF7F0FF0246054B9B689B0A82
:101D580003F007030349CB5C22FA03F3184680BD5E
:101D680000380240D423000880B500AFFFF7DCFF3D
:101D78000246054B9B685B0B03F007030349CB5CEA
:101D880022FA03F3184680BD00380240D423000825
:101D980080B582B000AF78607B68002B01D1012349
:101DA8003FE07B6893F83D30DBB2002B06D17B68BF
:101DB800002283F83C207868FEF720FD7B68242207
:101DC80083F83D207B681B68DA687B681B6822F40F
:101DD8000052DA60786800F029F87B681B681A6995
:101DE8007B681B6822F490421A617B681B685A69F9
:101DF8007B681B6822F02A025A617B681B68DA68D4
:101E08007B681B6842F40052DA607B6800221A641F
:101E18007B68202283F83D207B68202283F83E20BF
:101E2800002318460837BD4680BD00002DE9B04F95
:101E3800C0B000AFC7F8F400D7F8F4301B681B69CE
:101E480023F44050D7F8F430D968D7F8F4301A683A
:101E580040EA01031361D7F8F4309A68D7F8F430F0
:101E68001B691A43D7F8F4305B691A43D7F8F43082
:101E7800DB691343C7F8F830D7F8F4301B68DB6820
:101E880023F4164121F00C01D7F8F4301A68D7F87A
:101E9800F8300B43D360D7F8F4301B685B6923F440
:101EA8004070D7F8F4309969D7F8F4301A6840EAE6
:101EB80001035361D7F8F4301A688F4B9A4205D062
:101EC800D7F8F4301A688D4B9A4204D1FFF74CFFCB
:101ED800C7F8FC0003E0FFF733FFC7F8FC00D7F8AA
:101EE800F430DB69B3F5004F40F00C81D7F8FC30D3
:101EF8000022C7F8E830C7F8EC20D7E93A4522466F
:101F08002B469118B9655B41FB65D7E91623214635
:101F180012EB0108294643EB01094FF000024FF08C
:101F280000034FEAC90343EA58734FEAC8029046D0
:101F38009946234618EB0303C7F8E0302B4649EBD4
:101F48000303C7F8E430D7F8F4305B680022C7F819
:101F5800D830C7F8DC20D7E936120B46DB183B65CA
:101F6800134642EB03037B65D7E91423D7E938010D
:101F7800FEF736F902460B46614BA3FB02235B09C9
:101F88001C01D7F8FC300022C7F8D030C7F8D4209D
:101F9800D7E9348942464B469118B9645B41FB64E2
:101FA800D7E91223414612EB010A494643EB010BDC
:101FB8004FF000024FF000034FEACB0343EA5A7395
:101FC8004FEACA0292469B4643461AEB0303C7F8F8
:101FD800C8304B464BEB0303C7F8CC30D7F8F43086
:101FE8005B680022C7F8C030C7F8C420D7E93012B0
:101FF8000B46DB183B64134642EB03037B64D7E9CB
:102008001023D7E93201FEF7EBF802460B461146DA
:102018003B4BA3FB01235B09642202FB03F3CB1AAE
:10202800DB0003F13202364BA3FB02235B095B00A2
:1020380003F4F8731C44D7F8FC300022C7F8B83012
:10204800C7F8BC20D7E92E8942464B469118B96398
:102058005B41FB63D7E90E23414651183963494672
:102068004B417B634FF000024FF00003D7E90CAB04
:102078005946CB00514643EA51735146CA001046AF
:102088001946034642469B18C7F8B0304B460A46E5
:1020980042EB0303C7F8B430D7F8F4305B6800228A
:1020A800C7F8A830C7F8AC20D7E92A120B46DB18C6
:1020B800BB62134642EB0303FB62D7E90A23D7E965
:1020C8002C01FEF78DF802460B460D4BA3FB0213BD
:1020D8005B09642101FB03F3D31ADB003233084A9E
:1020E800A2FB03235B0903F00702D7F8F4301B684F
:1020F80022449A6006E100BF00100140001401402C
:102108001F85EB51D7F8FC300022C7F8A030C7F87C
:10211800A420D7E9288942464B46911839625B4189
:102128007B62D7E9082341465418494643EB010529
:102138004FF000024FF00003EB0043EA5473E20053
:1021480014461D464346E318C7F898304B4645EBFE
:102158000303C7F89C30D7F8F4305B680022C7F84F
:102168009030C7F894204FF000024FF00003D7E9F1
:10217800244529468B00214643EA917321468A006B
:10218800D7E92601FEF72CF802460B46604BA3FB65
:1021980002235B091C01D7F8FC300022C7F88830FD
:1021A800C7F88C20D7E9228942464B469118B96175
:1021B8005B41FB61D7E9062341465118396149461D
:1021C8004B417B614FF000024FF00003D7E904ABAD
:1021D8005946CB00514643EA51735146CA0010464E
:1021E8001946034642469B18C7F880304B460A46B4
:1021F80042EB0303C7F88430D7F8F4305B68002259
:10220800BB67FA674FF000024FF00003D7E91E8959
:1022180049468B00414643EA917341468A00D7E913
:102228002001FDF7DDFF02460B461146384BA3FBA4
:1022380001235B09642202FB03F3CB1A1B0132332F
:10224800334AA2FB03235B0903F0F0031C44D7F8CD
:10225800FC3000223B677A67D7E91C8942464B4627
:102268009118B9605B41FB60D7E9022341465118D8
:10227800396049464B417B604FF000024FF0000344
:10228800D7E900AB5946CB00514643EA5173514652
:10229800CA0010461946034642469B18BB664B4681
:1022A8000A4642EB0303FB66D7F8F4305B6800226A
:1022B8003B667A664FF000024FF00003D7E91889B1
:1022C80049468B00414643EA917341468A00D7E963
:1022D8001A01FDF785FF02460B460D4BA3FB0213BF
:1022E8005B09642101FB03F3D31A1B013233084A4B
:1022F800A2FB03235B0903F00F02D7F8F4301B6835
:1023080022449A6000BF07F58077BD46BDE8B08FCC
:102318001F85EB5102440346934200D1704703F8EE
:10232800011BF9E770B50D4D0D4C641BA410002678
:10233800A64209D10B4D0C4C00F026F8641BA410E2
:102348000026A64205D170BD55F8043B98470136D2
:10235800EEE755F8043B98470136F2E7E423000816
:10236800E4230008E4230008E82300080A44914213
:1023780000F1FF3300D1704710B511F8014B03F895
:10238800014F9142F9D110BDF8B500BFF8BC08BCA7
:102398009E467047F8B500BFF8BC08BC9E4670471B
:1023A8004249534D494C4C414849525241484D418C
:1023B8004E4952524148494D0000000000000000BB
:1023C80000000000010203040607080900000000DD
:0423D80001020304F7
:0823DC003CDEFF7F0100000060
:0423E400BD0100082F
:0423E800990100084F
:0C23EC000024F4001000000001000000BC
:040000050800090DD9
:00000001FF
